{
  "contractName": "TodoList",
  "abi": [
    {
      "constant": true,
      "inputs": [
        {
          "name": "",
          "type": "uint256"
        }
      ],
      "name": "taskList",
      "outputs": [
        {
          "name": "id",
          "type": "uint256"
        },
        {
          "name": "content",
          "type": "string"
        },
        {
          "name": "completed",
          "type": "bool"
        }
      ],
      "payable": false,
      "stateMutability": "view",
      "type": "function",
      "signature": "0x2a1c52a5"
    },
    {
      "constant": true,
      "inputs": [],
      "name": "taskcnt",
      "outputs": [
        {
          "name": "",
          "type": "uint256"
        }
      ],
      "payable": false,
      "stateMutability": "view",
      "type": "function",
      "signature": "0x39dbcfe8"
    },
    {
      "inputs": [],
      "payable": false,
      "stateMutability": "nonpayable",
      "type": "constructor",
      "signature": "constructor"
    },
    {
      "anonymous": false,
      "inputs": [
        {
          "indexed": false,
          "name": "id",
          "type": "uint256"
        },
        {
          "indexed": false,
          "name": "content",
          "type": "string"
        },
        {
          "indexed": false,
          "name": "completed",
          "type": "bool"
        }
      ],
      "name": "TaskCreated",
      "type": "event",
      "signature": "0x05d0fb833127fc08168556d0e7ca9554fc3f6bc843b3b7d2bf1c35aea6bab660"
    },
    {
      "anonymous": false,
      "inputs": [
        {
          "indexed": false,
          "name": "id",
          "type": "uint256"
        },
        {
          "indexed": false,
          "name": "completed",
          "type": "bool"
        }
      ],
      "name": "TaskCompleted",
      "type": "event",
      "signature": "0xe21fa966ca5cd02748c0752352d18c48165e61cb55b4c29cccf924b5a95fcff1"
    },
    {
      "constant": false,
      "inputs": [
        {
          "name": "_content",
          "type": "string"
        }
      ],
      "name": "createTask",
      "outputs": [],
      "payable": false,
      "stateMutability": "nonpayable",
      "type": "function",
      "signature": "0x111002aa"
    },
    {
      "constant": false,
      "inputs": [
        {
          "name": "_id",
          "type": "uint256"
        }
      ],
      "name": "toggleCompleted",
      "outputs": [],
      "payable": false,
      "stateMutability": "nonpayable",
      "type": "function",
      "signature": "0x455f5024"
    }
  ],
  "bytecode": "0x60806040526000805534801561001457600080fd5b5060408051808201909152600f81527f74686973206973206d79207461736b0000000000000000000000000000000000602082015261005b90640100000000610060810204565b61021f565b60008054600190810180835560408051606081018252828152602080820187815282840187905293865284815291909420845181559151805192936100ad93908501929190910190610184565b5060408201518160020160006101000a81548160ff0219169083151502179055509050507f05d0fb833127fc08168556d0e7ca9554fc3f6bc843b3b7d2bf1c35aea6bab660600054826000604051808481526020018060200183151515158152602001828103825284818151815260200191508051906020019080838360005b8381101561014557818101518382015260200161012d565b50505050905090810190601f1680156101725780820380516001836020036101000a031916815260200191505b5094505050505060405180910390a150565b828054600181600116156101000203166002900490600052602060002090601f016020900481019282601f106101c557805160ff19168380011785556101f2565b828001600101855582156101f2579182015b828111156101f25782518255916020019190600101906101d7565b506101fe929150610202565b5090565b61021c91905b808211156101fe5760008155600101610208565b90565b6106448061022e6000396000f3fe6080604052600436106100615763ffffffff7c0100000000000000000000000000000000000000000000000000000000600035041663111002aa81146100665780632a1c52a51461011b57806339dbcfe8146101cf578063455f5024146101f6575b600080fd5b34801561007257600080fd5b506101196004803603602081101561008957600080fd5b8101906020810181356401000000008111156100a457600080fd5b8201836020820111156100b657600080fd5b803590602001918460018302840111640100000000831117156100d857600080fd5b91908080601f016020809104026020016040519081016040528093929190818152602001838380828437600092019190915250929550610220945050505050565b005b34801561012757600080fd5b506101456004803603602081101561013e57600080fd5b5035610344565b604051808481526020018060200183151515158152602001828103825284818151815260200191508051906020019080838360005b8381101561019257818101518382015260200161017a565b50505050905090810190601f1680156101bf5780820380516001836020036101000a031916815260200191505b5094505050505060405180910390f35b3480156101db57600080fd5b506101e46103f3565b60408051918252519081900360200190f35b34801561020257600080fd5b506101196004803603602081101561021957600080fd5b50356103f9565b600080546001908101808355604080516060810182528281526020808201878152828401879052938652848152919094208451815591518051929361026d93908501929190910190610559565b5060408201518160020160006101000a81548160ff0219169083151502179055509050507f05d0fb833127fc08168556d0e7ca9554fc3f6bc843b3b7d2bf1c35aea6bab660600054826000604051808481526020018060200183151515158152602001828103825284818151815260200191508051906020019080838360005b838110156103055781810151838201526020016102ed565b50505050905090810190601f1680156103325780820380516001836020036101000a031916815260200191505b5094505050505060405180910390a150565b600160208181526000928352604092839020805481840180548651600296821615610100026000190190911695909504601f810185900485028601850190965285855290949193929091908301828280156103e05780601f106103b5576101008083540402835291602001916103e0565b820191906000526020600020905b8154815290600101906020018083116103c357829003601f168201915b5050506002909301549192505060ff1683565b60005481565b6104016105d7565b60008281526001602081815260409283902083516060810185528154815281840180548651600296821615610100026000190190911695909504601f810185900485028601850190965285855290949193858401939092908301828280156104aa5780601f1061047f576101008083540402835291602001916104aa565b820191906000526020600020905b81548152906001019060200180831161048d57829003601f168201915b50505091835250506002919091015460ff161515602091820152604080830180511590526000858152600180845291902083518155838301518051949550859491936104fb93850192910190610559565b50604091820151600291909101805460ff1916911515919091179055818101518151848152901515602082015281517fe21fa966ca5cd02748c0752352d18c48165e61cb55b4c29cccf924b5a95fcff1929181900390910190a15050565b828054600181600116156101000203166002900490600052602060002090601f016020900481019282601f1061059a57805160ff19168380011785556105c7565b828001600101855582156105c7579182015b828111156105c75782518255916020019190600101906105ac565b506105d39291506105fb565b5090565b60606040519081016040528060008152602001606081526020016000151581525090565b61061591905b808211156105d35760008155600101610601565b9056fea165627a7a723058207e66e04f05e33ec2a4db274c8438a22237fc66ddd10b3e8c2d8669c5be2cd2e30029",
  "source": "pragma solidity ^0.5.0;\r\n\r\ncontract TodoList {\r\n    uint public taskcnt=0;\r\n\r\n\r\n    struct Task {\r\n        uint id;\r\n        string content;\r\n        bool completed;\r\n    }\r\n\r\n    event TaskCreated(\r\n        uint id,\r\n        string content,\r\n        bool completed\r\n    );\r\n\r\n    event TaskCompleted(\r\n        uint id, \r\n        bool completed\r\n    );\r\n\r\n    constructor() public\r\n    {\r\n        createTask(\"this is my task\");\r\n    }\r\n\r\n    mapping(uint => Task) public taskList;\r\n\r\n    function createTask(string memory _content) public\r\n    {\r\n        taskcnt++;\r\n        taskList[taskcnt]=Task(taskcnt, _content, false);\r\n        emit TaskCreated(taskcnt, _content, false);\r\n    }\r\n\r\n    function toggleCompleted(uint _id) public\r\n    {\r\n        Task memory _task=taskList[_id];\r\n        _task.completed = !_task.completed;\r\n        taskList[_id]=_task;\r\n        emit TaskCompleted(_id, _task.completed);\r\n    }\r\n}",
  "sourcePath": "C:/Users/Mihir Patel/to do list dapp/contracts/TodoList.sol",
  "compiler": {
    "name": "solc",
    "version": "0.5.0+commit.1d4f565a.Emscripten.clang"
  },
  "schemaVersion": "3.0.1",
  "updatedAt": "2023-05-26T11:29:59.917Z",
  "devdoc": {
    "methods": {}
  },
  "userdoc": {
    "methods": {}
  }
}