{
  "contractName": "TodoList",
  "abi": [
    {
      "constant": true,
      "inputs": [],
      "name": "taskcnt",
      "outputs": [
        {
          "name": "",
          "type": "uint256"
        }
      ],
      "payable": false,
      "stateMutability": "view",
      "type": "function",
      "signature": "0x39dbcfe8"
    }
  ],
  "bytecode": "0x608060405260008055348015601357600080fd5b50609e806100226000396000f3fe608060405260043610603f576000357c0100000000000000000000000000000000000000000000000000000000900463ffffffff16806339dbcfe8146044575b600080fd5b348015604f57600080fd5b506056606c565b6040518082815260200191505060405180910390f35b6000548156fea165627a7a72305820cb794712e5dacb11193b474dfbaed0b18bbe17215cfbcb1259ba9f4f95e208f20029",
  "source": "pragma solidity ^0.5.0;\r\n\r\ncontract TodoList {\r\n    uint public taskcnt=0;\r\n}",
  "sourcePath": "C:/Users/Mihir Patel/to do list dapp/contracts/TodoList.sol",
  "compiler": {
    "name": "solc",
    "version": "0.5.0+commit.1d4f565a.Emscripten.clang"
  },
  "schemaVersion": "3.0.1",
  "updatedAt": "2023-05-20T04:26:32.318Z",
  "devdoc": {
    "methods": {}
  },
  "userdoc": {
    "methods": {}
  }
}